:1000000055C000006FC000006DC000006BC0000054
:1000100069C0000067C0000065C0000084C5000022
:1000200061C000005FC0000010C100005BC00000A4
:1000300059C0000057C0000055C0000053C0000068
:1000400051C000004FC000004DC000004BC0000078
:1000500049C0000047C0000045C0000043C0000088
:1000600041C000003FC000003DC000003BC0000098
:1000700039C0000037C0000035C0000033C00000A8
:1000800075C500002FC000002DC000002BC000006F
:100090000C949B0827C0000025C0000023C000006E
:1000A00021C000001FC000001DC0000011241FBEA1
:1000B000CFEFDAE0DEBFCDBF11E0A0E0B1E0E0E6D7
:1000C000F7E102C005900D92A23BB107D9F712E00B
:1000D000A2EBB1E001C01D92A132B107E1F72DD032
:1000E0000C94AE0B8DCF84B7877F84BF88E10FB6A9
:1000F000F89480936000109260000FBE20E880E0CA
:1001000090E00FB6F89420936100809361000FBED9
:1001100081E885BF25BF1AB88FEF8BB914B885B9B0
:1001200017B880EC88B91DB884E48EB910BA83EF93
:1001300081BB6A98729A000072C0D5DF78943BD573
:10014000A7D3A8D380E090E0089508950895809102
:100150000B0190910C01009729F0019790930C01ED
:1001600080930B0108958093E900EBEEF0E080812D
:1001700081608083EDEEF0E010826093EC004083BC
:100180008091EE00881F8827881F089551D058D08D
:100190008091D800982F9F779093D80080688093A3
:1001A000D8008AE482BF19BC89B5826089BD09B4D0
:1001B00000FEFDCF8091D8008F7D8093D8001092F3
:1001C0000E0210920C0210920B0210920A02809101
:1001D000E0008B7F8093E0008091D8008160809365
:1001E000D80080E060E042E0BEDF8091E1008E7FD9
:1001F0008093E1008091E20081608093E200809131
:10020000E20088608093E2008091E0008E7F80931E
:10021000E0008091D80080618093D8000895E7EDD8
:10022000F0E080818160808381E080930D02AECF19
:10023000E8EDF0E080818E7F80831092E2000895E7
:100240001092DA001092E10008951F920F920FB6FB
:100250000F9211242F933F934F935F936F937F934C
:100260008F939F93AF93BF93EF93FF938091DA00A7
:1002700080FF15C08091D80080FF11C08091DA0006
:100280008E7F8093DA008091D90080FF05C081E0E5
:1002900080930E025ADF03C010920E0257DF809146
:1002A000E10080FF1DC08091E20080FF19C08091B5
:1002B000E1008E7F8093E1008091E2008E7F809349
:1002C000E2008091E20080618093E2008091D8009A
:1002D00080628093D80019BC85E080930E0276D0AE
:1002E0008091E10084FF2DC08091E20084FF29C04D
:1002F00019BC89B5826089BD09B400FEFDCF80912B
:10030000D8008F7D8093D8008091E1008F7E80930C
:10031000E1008091E2008F7E8093E2008091E20014
:1003200081608093E20080910C02882321F4809107
:10033000E30087FF02C084E001C081E080930E02E9
:1003400045D08091E10083FF22C08091E20083FFCD
:100350001EC08091E100877F8093E10082E080935E
:100360000E0210920C028091E1008E7F8093E100DA
:100370008091E2008E7F8093E2008091E2008061B4
:100380008093E20080E060E042E0EDDE1FD08091EB
:10039000E10082FF0AC08091E20082FF06C08091E6
:1003A000E1008B7F8093E100D2DEFF91EF91BF915E
:1003B000AF919F918F917F916F915F914F913F91FD
:1003C0002F910F900FBE0F901F90189508952F92A8
:1003D0003F924F925F926F927F928F929F92AF92D5
:1003E000BF92CF92DF92EF92FF920F931F93DF9312
:1003F000CF93CDB7DEB760970FB6F894DEBF0FBED0
:10040000CDBF5E010894A11CB11C8091170290E041
:10041000B5014AE050E00E94830AB5E04B2E512C12
:100420004C0E5D1E8091180290E0B2014AE050E04F
:100430000E94830AA9E02A2E312C2C0E3D1E8091A9
:10044000190290E0B1014AE050E00E94830A8091D5
:10045000190290E0BE01635F7F4F4AE050E00E94C6
:10046000830ACC24DD2400E010E0EE24FF2466247F
:100470007724450106C0F1E0CF2ED12C02C0CC2458
:10048000DD2426D580E060E013D58DE091E0FDD439
:1004900080E061E00DD582E191E0F7D480E062E098
:1004A00007D587E191E0F1D480E063E001D587E2F0
:1004B00091E0EBD48FE060E0FBD4C501E6D48FE09F
:1004C00061E0F6D4C201E1D48FE062E0F1D4C10171
:1004D000DCD48FE063E0ECD4CE010D96D6D48091CD
:1004E0001B0290911C020E94F00A8A33C1F08B33E8
:1004F00020F4803308F4C5CFA0C08D3309F44BC07D
:100500008E3330F48B33D9F08C3309F0BACF35C049
:100510008E3309F445C08F3309F0B3CF5FC0C114E7
:10052000D10409F4A8CFC801880F991F880F991F1B
:100530008A0D9B1DCBD7009709F4A3CFA0CFC11480
:10054000D10409F09CCFCFD160960FB6F894DEBFEE
:100550000FBECDBFCF91DF911F910F91FF90EF9014
:10056000DF90CF90BF90AF909F908F907F906F90D3
:100570005F904F903F902F900895C114D10441F0A7
:10058000E114F10409F47DCF0894E108F10879CF72
:100590000D5F1F4F20C081E090E06826792671CF63
:1005A000C114D104B1F0D801AA0FBB1FAA0FBB1F01
:1005B000AA0DBB1DFD0101900020E9F73197EA1B50
:1005C000FB0BEE16FF0608F05CCF0894E11CF11C53
:1005D00058CF0F5F1F4F0370107053CFC114D10459
:1005E00009F44FCFF801EE0FFF1FEE0FFF1FA5011B
:1005F0004E0F5F1FDA018C91882309F442CFEE0D74
:10060000FF1DE80DF91DC70103C00196218121934B
:10061000DA010D900020E9F71197A41BB50B8A179A
:100620009B0798F3F801EE0FFF1FEE0FFF1FE80D79
:10063000F91DE80FF91F118224CF9801220F331FF3
:10064000220F331F6114710469F02E0D3F1D280D18
:10065000391DF90180830894E11CF11C21E0622E10
:10066000712C0FCFF501E20FF31FDF010D90002079
:10067000E9F71197AE1BBF0BFD013197E20FF31F96
:10068000E80DF91D319603C0929191831197EA16F6
:10069000FB06D4F3F801EE0FFF1FEE0FFF1FEE0D68
:1006A000FF1DE80DF91D8083ECCE4F925F926F9293
:1006B0007F928F929F92AF92BF92CF92DF92EF92F2
:1006C000FF920F931F93DF93CF93CDB7DEB76C9755
:1006D0000FB6F894DEBF0FBECDBF40901702552471
:1006E000C0901802DD244114510409F4ABC080917C
:1006F000040290910502A0910602B0910702898F31
:100700009A8FAB8FBC8FAA2466247724430101E023
:1007100010E017C0CDD62FE0622E712C682279220E
:10072000D80102C0AA0FBB1F6A94E2F73D018824DA
:1007300077FC8094982C611471048104910409F46D
:10074000A3948A2D90E08C159D0524F319E0A12E29
:10075000B12CAC0EBD1EBCD380E060E0A9D387E312
:1007600091E093D380E090E0B5014AE050E0CBD631
:100770008CD380E073D260E070E04AE022E004E0D5
:1007800081D480E491E081D38091170290E0B5019B
:100790004AE050E0B8D679D380E060D2B2014AE0B6
:1007A00020E002E06FD480E061E082D388E491E051
:1007B0006CD3C0900402D0900502E0900602F09045
:1007C0000702898D9A8DAB8DBC8DC81AD90AEA0AA9
:1007D000FB0AC701B601A5012AE030E0B3D655D324
:1007E00081E03CD2B6014AE020E04CD480E062E0F7
:1007F0005FD385E591E049D3C701B601A5012AE0A1
:1008000030E0A0D642D382E029D2B6014AE020E00F
:1008100039D480E063E04CD382E691E036D360E0E7
:1008200070E0CB01A5012AE030E08CD62ED383E026
:1008300015D260E070E04AE020E024D48CE0B301FF
:100840001DD289CF1A8219821C821B826C2DDE82F6
:10085000CD8220E03A8140E05C817E818F81988565
:100860006AD06C960FB6F894DEBF0FBECDBFCF91A5
:10087000DF911F910F91FF90EF90DF90CF90BF908D
:10088000AF909F908F907F906F905F904F90089562
:100890009CC108951DD380E060E00AD38FE691E00B
:1008A000F4D280E061E004D385E791E0EED280E00D
:1008B00062E0FED28DE791E0E8D280E063E0F8D21A
:1008C00087E891E0E2D280911B0290911C0288D6C9
:1008D0008133910521F082339105E1F602C0E5DE16
:1008E000D9CF75DDD7CF4091170250E060E070E0BE
:1008F0008091000090910100C7D64091180250E00D
:1009000060E070E08091040090910500BDD64091B8
:10091000190250E060E070E08091080090910900B9
:10092000B3D640911A0250E060E070E080910C0074
:1009300090910D00A9C6DF93CF93CDB7DEB728976E
:100940000FB6F894DEBF0FBECDBF28960FB6F89451
:10095000DEBF0FBECDBFCF91DF910895F894EAE6D8
:10096000F0E080818F7C808378940895F894E1E9A9
:10097000F0E080818C60808385E39CE09093990017
:1009800080939800E1E7F0E0808182608083789432
:100990000895CF92DF92EF92FF920F931F93DF9310
:1009A000CF9300D000D00F92CDB7DEB71982DD24EF
:1009B0008E010E5F1F4F7E010894E11CF11C8D2DEE
:1009C0004DD162E04FE3C5D2C82E80E06D2D70D2CC
:1009D000CC20B9F48D2D42D12BB1806790E030E06E
:1009E0002071307044E0359527954A95E1F7822BC8
:1009F000932BB80140E150E0DFD547D28FE891E07A
:100A000002C081E991E041D28D2D28D162E0A70199
:100A1000D5D2C82E882329F486E991E036D289817F
:100A200004C08BE991E031D28C2D90E0B80140E117
:100A300050E0C2D52AD28D2D11D163E0A701BED2DC
:100A4000C82E882329F486E991E01FD2898104C049
:100A50008BE991E01AD28C2D90E0B80140E150E092
:100A6000ABD513D2D3948D2D843009F0A8CF8091CB
:100A70001B0290911C02B4D50F900F900F900F9015
:100A80000F90CF91DF911F910F91FF90EF90DF902A
:100A9000CF900895CF92DF92EF92FF920F931F9322
:100AA000CF93DF938CE01CD16B017C01C0E0D0E0E0
:100AB00001E010E0C8010C2E02C0880F991F0A94B3
:100AC000E2F7AA2797FDA095BA2F8C219D21AE2190
:100AD000BF210097A105B10551F08CB169B16695B0
:100AE00060766C2B809108029091090294D0219637
:100AF000C032D105F9F6DF91CF911F910F91FF9090
:100B0000EF90DF90CF9008958091080290910902B4
:100B1000FC01248135812115310519F058D090E070
:100B20000895B8DFF1CF1F920F920FB60F921124E4
:100B30002F933F934F935F936F937F938F939F93E5
:100B4000AF93BF93EF93FF93A5DFFF91EF91BF9119
:100B5000AF919F918F917F916F915F914F913F9155
:100B60002F910F900FBE0F901F9018951F920F920C
:100B70000FB60F9211248F939F93AF93BF938091E1
:100B8000040290910502A0910602B091070201961D
:100B9000A11DB11D8093040290930502A09306024B
:100BA000B0930702BF91AF919F918F910F900FBEAD
:100BB0000F901F90189580EA91E090931C0280930B
:100BC0001B02D4DECBDE8DD188C0E3CE0895FC01BC
:100BD0009FB7F8944481558141155105C9F026818C
:100BE0003781A081B181A20FB31F8C912F5F3F4F3E
:100BF00037832683628173812617370720F0261BEF
:100C0000370B37832683415050405583448301C0BE
:100C100080E09FBF08951F93FC01162F4FB7F894F3
:100C2000A481B58122813381A217B30798F486810C
:100C300097818A0F9B1FB901C8D3A081B181A80FEA
:100C4000B91F1C93848195810196958384834FBF3E
:100C50008FEF02C04FBF80E01F9108955C989BB159
:100C6000282F30E02270307043E0220F331F4A9566
:100C7000E1F7922B9BB98170880F0895EF92FF9254
:100C80000F931F93CF93DF93182FE62EE7017E017A
:100C9000F72EE70100E0802FE1DF612FAE018ED15A
:100CA0000F5F21960430B9F7DF91CF911F910F911B
:100CB000FF90EF900895FF920F931F93F82E062F49
:100CC00010E0812FCBDF6F2D402F43D11F5F1430F9
:100CD000C1F71F910F91FF90089582E06FE3EBCF72
:100CE000EF92FF920F931F93DF93CF9300D000D02A
:100CF000CDB7DEB7BE016F5F7F4FC0DF89819A81BC
:100D0000AB81BC819C01AD012E7130704070507080
:100D100014E0220F331F441F551F1A95D1F7FCE32F
:100D2000EF2EF12C012D112DE822F9220A231B238D
:100D3000EE0CFF1C001F111F2E293F29402B512BA9
:100D40007FE0E72EF12C012D112DE822F9220A2354
:100D50001B232E293F29402B512B68E7E62EF12C2F
:100D6000012D112DE822F9220A231B23F5E0EE0CB8
:100D7000FF1C001F111FFA95D1F72E293F29402B88
:100D8000512BE0EFEE2EF12C012D112DE822F9224E
:100D90000A231B2372E0EE0CFF1C001F111F7A9523
:100DA000D1F72E293F29402B512B60EEE62E61E032
:100DB000F62E012D112DE822F9220A231B23F6E03D
:100DC000EE0CFF1C001F111FFA95D1F72E293F29A9
:100DD000402B512BE0ECEE2EE3E0FE2E012D112DE9
:100DE000E822F9220A231B2373E0EE0CFF1C001FEC
:100DF000111F7A95D1F72E293F29402B512B80784E
:100E00009770A070B07067E0880F991FAA1FBB1F72
:100E10006A95D1F7282B392B4A2B5B2BB901CA01D4
:100E20000F900F900F900F90CF91DF911F910F9126
:100E3000FF90EF90089580FF02C08F9A01C08F98B5
:100E400081FF02C08E9A01C08E9882FF02C08D9AE7
:100E500001C08D9883FF02C08C9A08958C980895E4
:100E60001F93182F2E9A82958F70E5DF2E982E9A59
:100E7000812FE1DF2E9885E88A95F1F700001F9118
:100E800008952C98EDCF2C9AEBCFEF92FF92CF9351
:100E9000DF93E82EE7017E01F92EE70101C0F3DFC1
:100EA00089918823E1F7DF91CF91FF90EF9008952A
:100EB000962F91709295990F990F907C669524E1E9
:100EC000629F602D1124960F980F892F8068D9CFCB
:100ED00081E0D7DF8FE99FE00197F1F700C00000C4
:100EE00008951F93879A869A859A849A269A249AB7
:100EF0008FE295E70197F1F700C000002C982E983B
:100F000013E02E9A83E097DF2E988FE097E2019707
:100F1000F1F700C000001150A1F72E9A82E08BDF9C
:100F20002E988FEC97E00197F1F700C0000088E25F
:100F3000A8DF88E0A6DF81E0A4DF8FE99FE00197CA
:100F4000F1F700C0000086E09CDF8CE09ADF1F9183
:100F500008950F931F93DF93CF930F92CDB7DEB712
:100F6000182F042F8091BC008E7F8093BC00698372
:100F7000B5D0C2D0812F8067C4D0BED08091B900D7
:100F80006981883141F4862FBCD0B6D0802FB9D08A
:100F9000B3D080E001C081E08983A7D0898190919E
:100FA000BC0094FFFCCF9091BC0091609093BC007A
:100FB0000F90CF91DF911F910F910895EF92FF92C3
:100FC0000F931F93DF93CF930F92CDB7DEB7182FF8
:100FD0007A018091BC008E7F8093BC0069837ED0B3
:100FE0008BD0812F80678DD087D08091B9006981A7
:100FF000883129F4862F85D07FD000E001C001E040
:1010000074D08091BC0084FFFCCF8091BC008160D3
:101010008093BC00013069F18FEC97E00197F1F704
:1010200000C000008091BC008E7F8093BC0056D031
:1010300063D0812F816765D05FD08091B900803403
:1010400041F480E067D058D073D0F701808380E00E
:1010500003C08091B90081E0898347D08981909154
:10106000BC0094FFFCCF9091BC0091609093BC00B9
:1010700001C08EEF0F90CF91DF911F910F91FF90E4
:10108000EF900895CF92DF92EF92FF920F931F930C
:10109000DF93CF930F92CDB7DEB7182F862FF22EA6
:1010A000D42EEE240FC02F2D205E972F6D2D7E2D78
:1010B0008CD1C62E482F812F622F79834ADF8C2D49
:1010C0007981F394F01678F30F90CF91DF911F910F
:1010D0000F91FF90EF90DF90CF900895ECEBF0E050
:1010E00080818F70806A80830895ECEBF0E08081CE
:1010F0008F70806D808308958091BC0087FFFCCF46
:1011000008958093BB00ECEBF0E080818F708068E5
:1011100080830895882329F08091BC008F70806CB3
:1011200004C08091BC008F7080688093BC000895DB
:101130008091BB0008951F920F920FB60F92112459
:101140002F933F934F935F936F937F938F939F93CF
:10115000AF93BF93EF93FF938091B900887F803660
:1011600009F49EC0813670F5883209F45FC0893277
:1011700098F4803109F457C0813138F4882309F498
:10118000ECC0883009F0F1C04EC0883109F44EC07F
:10119000803209F0EAC066C0803409F476C0813438
:1011A00038F4803309F45EC0883309F0DEC05CC0D7
:1011B000803509F45EC0883509F448C0883409F0E8
:1011C000D4C050C0883909F481C08939B0F4883757
:1011D00009F466C0893738F4883609F461C080376D
:1011E00009F0C3C05DC0883809F470C0803909F4C3
:1011F0005DC0803809F0B9C059C0803B09F47BC09C
:10120000813B38F4803A09F464C0883A09F0ADC0F3
:1012100072C0803C09F49CC0883C09F499C0883BAA
:1012200009F0A3C079C08091B3010EC09091B401C0
:101230008091B5019817B0F4E92FF0E0EA54FE4F21
:1012400080819F5F9093B4015CDF8FC08091D60155
:101250009091BB00E82FF0E0E952FE4F90838F5F42
:101260008093D60142DF7FC08091BC008F70806880
:1012700078C08091D6019091BB00E82FF0E0E95250
:10128000FE4F90838F5F8093D6012091D60130E08E
:101290008091F70190E0019728173907BCF414C03A
:1012A00085E08093B2011092D60146C08091D601AC
:1012B0009091BB00E82FF0E0E952FE4F90838F5FE2
:1012C0008093D601803210F48FEF01C080E022DFDE
:1012D0004CC08091BC008F70806C8093BC00E0910A
:1012E000F801F091F9013097F1F18091D60167EDA5
:1012F00071E0099538C084E08093B201E091FA0171
:10130000F091FB01309731F080E266EB71E00995D6
:101310008093B5011092B4018091B401E82FF0E000
:10132000EA54FE4F90819093BB008F5F8093B4018D
:101330009091B501891728F48091BC008F70806C62
:1013400004C08091BC008F7080688093BC000DC089
:101350008091BC008F70806C04C08091BC008F7045
:10136000806D8093BC001092B201FF91EF91BF910C
:10137000AF919F918F917F916F915F914F913F912D
:101380002F910F900FBE0F901F901895629FD00164
:10139000739FF001829FE00DF11D649FE00DF11D30
:1013A000929FF00D839FF00D749FF00D659FF00DDF
:1013B0009927729FB00DE11DF91F639FB00DE11DCC
:1013C000F91FBD01CF0111240895AA1BBB1B51E1D8
:1013D00007C0AA1FBB1FA617B70710F0A61BB70BA5
:1013E000881F991F5A95A9F780959095BC01CD014A
:1013F0000895A1E21A2EAA1BBB1BFD010DC0AA1F56
:10140000BB1FEE1FFF1FA217B307E407F50720F06D
:10141000A21BB30BE40BF50B661F771F881F991FE8
:101420001A9469F760957095809590959B01AC0131
:10143000BD01CF010895A0E0B0E0E0E2FAE05FC1B5
:10144000EC01688179818A819B8161157105810533
:10145000910521F464E279ED8BE597E02DE133EF1E
:1014600041E050E029D179018A0127EA31E440E0E6
:1014700050E08CDF5B016C01C801B7012CEE34EF4A
:101480004FEF5FEF83DF6A0D7B1D8C1D9D1D97FF66
:1014900004C06150704080409048688379838A839B
:1014A0009B837F77CB01CDB7DEB7EAE044C1C3CFE2
:1014B0008EEA91E0C0CFA0E0B0E08093AE019093BF
:1014C000AF01A093B001B093B1010895FC0188274A
:1014D0009927E89421912032E9F3293010F02E3039
:1014E000C8F32B3239F02D3231F4689403C05CD04C
:1014F000820F911D219120532A30C8F31EF490953C
:1015000081959F4F0895FB019F01E8944230BCF004
:101510004532ACF44A3029F497FB1EF4909581953E
:101520009F4F642F772751DF805D8A330CF0895DF0
:101530008193CB010097A9F716F45DE251931082D5
:10154000C901AAC0FA01CF93FF93EF9322303CF177
:1015500025322CF5C22FE894CA3049F497FB3EF4AB
:1015600090958095709561957F4F8F4F9F4F2C2F51
:10157000332744275527FF93EF933BDFEF91FF91EC
:10158000605D6A330CF0695D6193B901CA01605016
:1015900070408040904059F716F4CDE2C19310821C
:1015A0008F919F91CF9178C07AE0979F902D879FE0
:1015B000802D910D11240895FB019F0142306CF0A4
:1015C00045325CF4642F772700DF805D8A330CF0AE
:1015D000895D8193CB010097A9F71082C9015CC096
:1015E000CF93DF93EC013B8130FF36C036FF09C05B
:1015F0003F7B3B838E819F8101969F838E832A81CF
:1016000029C032FF0FC0E881F9818081992787FDC9
:101610009095009719F430623B831EC03196F98390
:10162000E88311C0EA85FB85CE01099597FF0BC0C1
:101630002B813FEF8F3F930711F480E101C080E2DF
:10164000822B8B8309C02E813F812F5F3F4F3F83C9
:101650002E83282F30E002C02FEF3FEFC901DF912A
:10166000CF910895262FF999FECF92BD81BDF89AAA
:10167000019700B4021639F01FBA20BD0FB6F894D6
:10168000FA9AF99A0FBE08950396272FECDFEADF46
:10169000252FE9DF242FE7CFDC01FC01672F7191B3
:1016A0007723E1F7329704C07C916D937083629148
:1016B000AE17BF07C8F3089597FB092E05260ED075
:1016C00057FD04D096DE0AD0001C38F450954095A2
:1016D000309521953F4F4F4F5F4F0895F6F7909506
:1016E0008095709561957F4F8F4F9F4F08952F92F2
:1016F0003F924F925F926F927F928F929F92AF92A2
:10170000BF92CF92DF92EF92FF920F931F93CF93EE
:10171000DF93CDB7DEB7CA1BDB0B0FB6F894DEBF85
:101720000FBECDBF09942A88398848885F846E84AB
:101730007D848C849B84AA84B984C884DF80EE80F5
:10174000FD800C811B81AA81B981CE0FD11D0FB6FE
:10175000F894DEBF0FBECDBFED010895F894FFCF22
:101760000001080000FC010800000000006E203AA3
:1017700020006D203A20006D696E696D616C2074E7
:10178000696D65203A20006D6178696D616C207427
:10179000696D65203A2000726F756E64203A2000F2
:1017A00066726F6D203A200074696D652072756EE7
:1017B00064203A200074696D652073756D20203AAD
:1017C000200074696D652061766520203A20004D07
:1017D000656E753A00313A2047616D6500323A20F6
:1017E000436F6E66696700333A205374617400205A
:1017F00000777466200020723A200020653A2000AD
:10180000000000010000000000008405000001004D
:021810000000D6
:00000001FF
